:020000040800F2
:10000000F05300204D020008752700081921000850
:100010007127000845050008452B00080000000076
:10002000000000000000000000000000F1270008B0
:100030004905000800000000812700081D2800086D
:1000400067020008670200086702000867020008EC
:1000500067020008670200086702000867020008DC
:1000600067020008670200086702000867020008CC
:1000700067020008670200086702000867020008BC
:1000800067020008670200086702000867020008AC
:10009000670200086702000867020008670200089C
:1000A000670200086702000867020008670200088C
:1000B000670200086702000867020008670200087C
:1000C000670200086702000867020008670200086C
:1000D000670200086702000867020008670200085C
:1000E000670200086702000867020008670200084C
:1000F0006702000809290008670200086702000873
:10010000670200086702000867020008670200082B
:10011000670200086702000867020008670200081B
:10012000670200086702000867020008670200080B
:1001300067020008670200086702000867020008FB
:1001400067020008670200086702000867020008EB
:1001500067020008670200086702000867020008DB
:1001600067020008670200086702000867020008CB
:10017000670200086702000867020008000000002C
:1001800067020008670200086702000867020008AB
:10019000670200086702000867020008670200089B
:1001A00000000000000000006702000800F002F8F4
:1001B00000F03CF80AA090E8000C82448344AAF1C5
:1001C0000107DA4501D100F031F8AFF2090EBAE8C3
:1001D0000F0013F0010F18BFFB1A43F0010318477B
:1001E000C0480000E0480000103A24BF78C878C139
:1001F000FAD8520724BF30C830C144BF04680C602D
:10020000704700000023002400250026103A28BF74
:1002100078C1FBD8520728BF30C148BF0B60704778
:100220001FB504F007FC1FBD10B510BD00F04FF95D
:100230001146FFF7F5FF02F087FC00F06DF903B4FB
:10024000FFF7F2FF03BC00F075F900000948804792
:1002500009480047FEE7FEE7FEE7FEE7FEE7FEE7A8
:10026000FEE7FEE7FEE7FEE704480549054A064BC0
:1002700070470000F5280008AD010008F04D00208F
:10028000F0530020F04F0020F04F002053EA020C02
:1002900000F069802DE9F04B4FF00006002B1FBFE6
:1002A000B3FA83F503FA05F424FA05F65E4012BFAB
:1002B0001643B2FA82F502FA05F4C5F120051EBF15
:1002C00022FA05FC44EA0C04203556EA044C4FEAB5
:1002D000144418BF641C4FF000084FF0000990420E
:1002E00071EB030C39D3002919BFB1FA81F701FA78
:1002F00007F6B0FA80F700FA07F6C7F120071EBF2D
:1003000020FA07FC46EA0C062037B6FBF4FCA7EB04
:100310000507103F07F01F0BCBF120062CFA06F65D
:100320000CFA0BFB44BFB3460026202FA4BF5E4649
:100330004FF0000B5BEA060C08BF4FF0010B19EB06
:100340000B0948EB0608ABFB027C06FB02CC0BFB5F
:1003500003CCC01B71EB0C01C1E70B4602464146C2
:100360004846BDE8F08B13B5084318BF4FF0FF3087
:100370000146AFF30080BDE81C407047032A40F2FD
:10038000308010F0030C00F0158011F8013BBCF137
:10039000020F624498BF11F801CB00F8013B38BF4F
:1003A00011F8013BA2F1040298BF00F801CB38BF5D
:1003B00000F8013B11F0030300F05780083AC0F049
:1003C000088051F8043B083A51F804CBA0E8081023
:1003D000F5E7121D5CBF51F8043B40F8043BAFF356
:1003E0000080D20724BF11F8013B11F801CB48BFB0
:1003F00011F8012B24BF00F8013B00F801CB48BFE6
:1004000000F8012B704702F0FF0343EA032242EA9F
:10041000024200F002B84FF0000200B513469446C5
:100420009646203922BFA0E80C50A0E80C50B1F14C
:100430002001BFF4F7AF090728BFA0E80C5048BF60
:100440000CC05DF804EB890028BF40F8042B08BFFE
:10045000704748BF20F8022B11F0804F18BF00F8FA
:10046000012B704770477047704710B5203AC0F0B5
:100470000B80B1E81850A0E81850B1E81850A0E877
:100480001850203ABFF4F5AF5FEA027C24BFB1E810
:100490001850A0E8185044BF18C918C0BDE8104053
:1004A0005FEA827C24BF51F8043B40F8043B08BF5C
:1004B0007047D20728BF31F8023B48BF11F8012B23
:1004C00028BF20F8023B48BF00F8012B7047754653
:1004D00000F02CF8AE4605006946534620F00700B0
:1004E000854618B020B5FFF7BFFEBDE820404FF0AD
:1004F00000064FF000074FF000084FF0000BAC462D
:10050000ACE8C009ACE8C009ACE8C009ACE8C00977
:1005100021F007018D46704710B50446AFF3008007
:100520002046BDE81040FFF78ABE00000048704733
:100530001000002001491820ABBEFEE72600020093
:1005400070470000FEE700007047000072B600BF71
:10055000FEE7000070B581B00022009290F83C20C8
:10056000012A03D10221084601B070BD0E680122A4
:100570000A2E80F83C2009D3B2B25200D0F800E035
:1005800012FA86F21E3A0EF10C0305E0D0F800E0F4
:1005900006EB46020EF110034FF0070C1D680CFA33
:1005A00002F4A5431D608D681C6805FA02F222431F
:1005B0001A604968062905D801EB810105390EF159
:1005C000340309E00C2901EB810187BF41390EF1A9
:1005D0002C0323390EF130031F221C688A4024EAC1
:1005E000020242F2043C1A60C4F2010CB2B21C686E
:1005F00002FA01F1ACF5417221439645196005D02C
:10060000002180F83C10084601B070BD1221112E67
:10061000C1F2000118BF8E423AD1DCF800208E42B0
:1006200022F48002CCF80020DCF8002042F4000222
:10063000CCF80020E4D140F20801C2F200010968C0
:100640004DF68362C4F21B32A1FB0212910C01EB46
:1006500081014900009100990029D1D00099013908
:10066000009100990029CBD000990139009100999F
:100670000029C5D000990139009100990029BFD007
:1006800000990139009100990029E7D1B8E700BF2E
:10069000122EB5D1DCF8001021F40001CCF80010C6
:1006A000DCF8001041F48001CCF80010A8E700004D
:1006B000002804BF0120704710B50446006C0028D4
:1006C0003ED0206CC00645D4206C41F20211884314
:1006D000023042F204312064C4F20101086820F4BF
:1006E000403008600A6894E809101A43D4F810E012
:1006F0000A604168012321F4807141604168C0F6BD
:10070000007341EA0E214160416821F0407141606F
:10071000416841EA0C014160816821F40061816017
:10072000E168826811438160A16A8268994222F07F
:1007300070628260826813D122F0405119E000BFDC
:10074000204600F065F80020606484F83C00206CCE
:10075000C006B9D50120002184F83C1010BD00BFAF
:1007600011438160816821F040518160E16A8268B3
:1007700011438160816821F0020181608168227EDD
:1007800094F8203041EA42018160416883B141F42C
:100790000061416041684EF2000221F46041416015
:1007A000616ACFF6FF72436802EB4131194301E001
:1007B00021F400614160C16A40F2000C21F4700133
:1007C000C162E2696169CFF6F07CC36A0CEB025248
:1007D0001A43C262826822F40072826094F8302068
:1007E000836843EA42228260826822F480628260E7
:1007F000826842EA8121816000206064216C0122CC
:1008000062F301012164002184F83C1010BD000056
:1008100080B586B042F200010068C4F201010022F6
:1008200088420592049201D006B080BD43F63000A4
:100830000092C4F20200436943F480734361436948
:1008400003F480730093009B0092036843F0040359
:100850000360006800F004000090009802200190FE
:100860000320CDE9020201F5684001A900F0FCF87F
:1008700006B080BDB0B5C8B1044690F8200010B9EC
:10088000204600F071F82068016841F00101016024
:1008900000F0CEF9054600BF20684168C90707D1BE
:1008A00000F0C6F9401B0B28F6D312E00120B0BDC2
:1008B000016821F00201016000F0BAF9054600BFAD
:1008C0002068416889070DD500F0B2F9401B0B285C
:1008D000F6D3606A052140F400306062012084F89C
:1008E0002010B0BD217E0268012922F0800208BFDD
:1008F00080320260617E0268012922F0400208BF56
:1009000040320260A17E0268012922F0200208BF65
:1009100020320260E17E0268012922F0100218BF35
:1009200010320260217F0268012922F0080208BF0C
:1009300008320260617F0268012922F0040208BFC8
:1009400004320260D4E901C2D4E9033561691A4373
:100950002A431143ACF101021143C161002001217E
:10096000606284F82010B0BD80B586B0006846F69D
:100970000002C4F2000200219042CDE90411CDE949
:10098000021101912ED046F20041C4F200018842CA
:1009900068D140F27411C2F200010A6843F64000C7
:1009A000C4F20200531C0B6052B90021009101688F
:1009B00041F000710160016801F00071009100993F
:1009C0000021009150F8101C41F0020140F8101C69
:1009D00050F8100C00F00200009000984FF44070A6
:1009E00030E000BF43F64000C4F20200009101680D
:1009F00041F080610160016801F08061009100991F
:100A000040F27411C2F200010A68531C0B6052B923
:100A100000210091016841F000710160016801F05E
:100A20000071009100990021009150F8101C41F0D4
:100A3000020140F8101C50F8100C00F00200009069
:100A40000098602001900220029000200390032073
:100A500004900920059040F20040C4F2020001A970
:100A600000F002F806B080BD2DE9F04F82B000F131
:100A70003E4242F2004502F1FF77C4F202050A222B
:100A80004FEAB726A84208BF0922092E38BF4FEA0D
:100A9000B7224FF0010A002400274FF0000800920F
:100AA00008E000BF023708F10108202F04F1040418
:100AB00000F0B4800E680AFA08F916EA090FF1D0BE
:100AC000D1F804A00AF0030BABF10106012E17D8F0
:100AD0000322866802FA07FECA6826EA0E06BA40B2
:100AE000324382604268CAF3001522EA090205FA1D
:100AF00008F54FEA480C6FEA0E062A4342600BE005
:100B00000322BA40D643BBF1030FBC4604D1BC4616
:100B10004FF0030B22E000BFC2688D68324005FA37
:100B20000CF52A43BBF1020FC26017D16FF003022C
:100B300002EA5802024404F01C030F25D2F820E018
:100B400005FA03FA0D692EEA0A0E05FA03F343EAE1
:100B50000E031362D1F804A00AF0030B02680BFA2B
:100B60000CF332401A431AF4403F4FF0010A02607E
:100B700098D0002243F644030192C4F202031A689B
:100B800043F6004E42F480421A601A68C4F2010E25
:100B900002F480420192019A28F003024FF6084CB9
:100BA0007244CFF6FF7C52F80C3004F00C060F258F
:100BB000B540AB43009D05FA06F6334342F80C30CE
:100BC000DEF808204B6842EA090643F60C4CDD02C9
:100BD00058BF22EA0906CEF80860C4F2010CDCF81E
:100BE00000209D0242EA090658BF22EA0906CCF815
:100BF0000060DEF804209D0342EA090658BF22EA9D
:100C00000906CEF80460DEF80020DB0342EA09069C
:100C100058BF22EA0906CEF8006043E702B0BDE8FB
:100C2000F08F0000002A08BF0904816170470000AE
:100C300044F2F460C2F200000068704790F83D2072
:100C4000202A1CBF02207047242280F83D20026821
:100C5000136823F001031360536A23F010035362F7
:100C6000536A19435162116841F00101116020215A
:100C700080F83D100020704790F83D20202A1CBFCE
:100C800002207047242280F83D20026889B2136850
:100C900023F001031360D2F824C04FF6F07303EA87
:100CA0000C0319435162116841F0010111602021C8
:100CB00080F83D100020704770B5B8B3044690F836
:100CC0003D0028B9002084F83C00204600F0B0F830
:100CD000242084F83D002068016821F001010160B2
:100CE000016841F400410160016821F400410160A4
:100CF00000F0F8FA48F28041C0F21E0140F60013FD
:100D0000D4F804E088424FF00001C0F23D0348F2FD
:100D1000A16C4FF0000238BF01219842C0F2010CD3
:100D200038BF0122E64538BF0A460AB1012070BD2E
:100D30004DF68361C4F21B31A0FB01122168950CB2
:100D40004B684FF4967623F03F0343EA9243754392
:100D500044F6D3564B60C1F262060B6AA5FB0656F9
:100D6000B50923F03F03E64538BF950C6A1C1A43CA
:100D70000A62CA6948F2A0664CF6FF73C0F2010627
:100D8000B64522EA03020BD801384FEA4E03B0FB06
:100D9000F3F001306FF31F30042898BF04201EE0E9
:100DA000A368013863B119230EFB03F3B0FBF3F022
:100DB00001306FF31F3078B100F5804008E000BFCC
:100DC0000EEB4E03B0FBF3F001306FF31F3028B190
:100DD00000F5004003E000BF012000E001201043C7
:100DE000C8610868D4E9072320F0C0001043184305
:100DF0000860886848F2FF3204F10C0690434CCE3C
:100E000018431043A5698860C86820F0FF0030438C
:100E10002843C860086840F00100086000202021D5
:100E2000206484F83D10206384F83E0070BD00000B
:100E30002DE9F04786B0006845F60047C4F2000788
:100E4000B84203D006B0BDE8F08700BF002643F6E5
:100E500030050196C4F20205286801AC40F0040098
:100E6000286028684FF0120800F0040001900198F3
:100E7000019628684FF0030940F0010028602868B7
:100E80004FF0040A00F00100019001984FF4007047
:100E9000019007F5D6302146CDE90286CDF81090B5
:100EA000CDF814A0FFF7E0FD4FF48070CDE9010804
:100EB00003A880E8400607F5D2302146FFF7D4FDAD
:100EC0000096286940F400002861286900F40000B9
:100ED0000090009806B0BDE8F087000040F20000E6
:100EE00044F2F461C2F20000C2F2000100780A6824
:100EF000104408607047000080B543F60040C4F21B
:100F00000200016841F400710160016841F48061F0
:100F10000160016841F480710160032000F0C4F8B1
:100F20000F2000F005F800F061F8002080BD0000FF
:100F300070B586B0002543F640010195C4F2020168
:100F40000A68044642F480720A60096801A801F444
:100F5000807101910199694600F0A4F9049E002E68
:100F600018BF012600F0BEF94DF68361B040C4F20F
:100F70001B31A0FB01014FF0FF3000EB914140F22B
:100F8000643042F20002C2F20000C4F2000240F2F9
:100F9000E733C0E90021C0E902530561856100F033
:100FA000D7FC054610B1284606B070BD40F264304B
:100FB000C2F2000000F0FCFC05460028F3D12D2011
:100FC00000F036F80F2C0DD82D20214600220025E8
:100FD00000F03EF840F20400C2F20000046028462F
:100FE00006B070BD0125284606B070BD82B0002055
:100FF00043F640010190C4F202014A6842F4804283
:101000004A604A6802F480420192019A009008689E
:10101000002240F08050086008680F2100F08050E6
:10102000009000986FF0010002B000F011B80000CD
:10103000002848BF704700F01F01012202FA01F1A9
:101040004EF200124009CEF2000242F82010704722
:1010500010B54EF60C5CCEF2000CDCF80030C3F399
:10106000022E8EF00704042C28BF0424BEF10303D3
:101070004FF0FF3E0EFA04F438BF0023A14399401D
:101080000EFA03F39A43114300F00F02043A62444C
:1010900009010C3200F16043B0F1FF3FC8BF03F516
:1010A0006442117010BD00004EF60C51CEF20001EA
:1010B0000A684FF6FF031A4060F30A2242F080608C
:1010C00040F0FD700860704770B582B0002001905C
:1010D00043F64000C4F202000168402641F080510E
:1010E00001600068C4F20E2600F080500190019863
:1010F00047F204050120C4F200053060FFF798FDB7
:10110000044600BF2868C00306D4FFF791FD001B0A
:10111000B0F57A7FF6D90EE001207060FFF788FD08
:10112000044600BF2868800308D4FFF781FD001B38
:10113000B0F57A7FF6D9032002B070BD002002B06E
:1011400070BD00002DE9F041002800F08B8043F6CF
:101150000808C4F202080446D8F8F8030D4600F067
:101160000F00884207D288F8F853D8F8F80300F047
:101170000F00A84276D12068810717D5410705D511
:10118000D8F8001041F4E051C8F80010010705D567
:10119000D8F8001041F46041C8F80010D8F80010E9
:1011A000A26821F0F0011143C8F80010C0073FD138
:1011B000D8F8F80300F00F00A84207D988F8F853D0
:1011C000D8F8F80300F00F00A8424BD1206841077F
:1011D00007D5D8F80010E26821F4E0511143C8F8AF
:1011E0000010000708D5D8F80000216920F46040FD
:1011F00040EAC100C8F8000000F09CF8D8F80010E0
:1012000044F64E22C1F30311C0F60002515C40F2D5
:10121000080220FA01F140F20400C2F20000006866
:10122000C2F200021160FFF783FE0020BDE8F081EA
:101230006068811E022907D258F8081C89015CBF2A
:101240000120BDE8F08111E0012807D158F8081C01
:1012500089035CBF0120BDE8F08107E058F8081C55
:10126000890703D40120BDE8F08100BFD8F8001041
:1012700021F003010843C8F80000FFF7D9FC064637
:1012800041F28837D8F80000616800F00C00B0EB3C
:10129000810F8DD0FFF7CCFC801BB842F2D9032020
:1012A000BDE8F0810F22026043F60802C4F2020298
:1012B000136803F003034360136803F0F0038360D3
:1012C000136803F4E053C360D2F800C04FF4E05356
:1012D00003EADC030361D2F8F80300F00F000860B2
:1012E0007047000040F2080043F60801C2F2000017
:1012F000C4F202010068096844F65E22C1F382214B
:10130000C0F60002515CC8407047000040F208007F
:1013100043F60801C2F20000C4F202010068096845
:1013200044F65E22C1F34231C0F60002515CC8406F
:101330007047000010B543F60404C4F2020460686C
:1013400000F00C0008280BD0042819BF42F200401E
:10135000C0F2F40047F64000C0F27D1010BD00BF9F
:10136000206821682368490247F64001C0F27D11D8
:1013700000F03F02C3F388105CBF42F20041C0F2AC
:10138000F401A1FB00010023FEF780FF2168022287
:10139000C1F3014102EB4101B0FBF1F010BD0000CF
:1013A0002DE9F04182B000286AD00446007843F667
:1013B0000006C007C4F202060BD0B06800F00C00B3
:1013C000042840F0A1803068800302D560680028BE
:1013D00056D0207880071AD5B06810F00C0F09D0CD
:1013E000B06800F00C00082840F0A8807068400247
:1013F00000F1A4803068800702D5E06801283FD161
:101400003068216920F0F80040EAC100306020789F
:10141000000739D4207840074ED4A5695DB3B06881
:1014200000F00C00082840F0BD80012D28D0706825
:10143000E16900F480028A4222D1216A00F03F0271
:101440008A421DD147F6C071626A0140B1EB821F2A
:1014500016D1A26A0023CFF6FF7303EBC23200F469
:1014600040316FF30F0291420AD1E16A00F07060DF
:10147000B0EB016F04D1002002B0BDE8F08100BFE5
:10148000012002B0BDE8F0816069002840F2000050
:10149000C4F2472076D00121C0F8801EFFF7C8FBB8
:1014A000054600BF706F8007B4D4FFF7C1FB401B37
:1014B0000228F7D9DDE000BF306C10F080580AD167
:1014C00000200190306C40F080503064306C00F0AF
:1014D00080500190019847F20007C4F20007386875
:1014E000C00541D4386840F480703860FFF7A0FB35
:1014F000054600BF3868C00536D4FFF799FB401B8E
:101500000228F7D9B5E000BFB06800F00C00082849
:1015100003D1706840023FF556AF6068B0F5803F78
:1015200007D0B0F5A02F40F08D80306840F48020C7
:101530003060306840F4803030608DE0E068002832
:1015400052D00020C4F2472001210160FFF770FB58
:10155000054600BF306880073FF552AFFFF768FBD4
:10156000401B0228F6D984E0A068012805D0052890
:101570004ED1306F40F004003067306F40F0010012
:1015800030674FE00021C0F8801EFFF751FB054691
:10159000706F80077FF53EAFFFF74AFB401B0228C4
:1015A000F6D966E00027C4F2472700203866FFF727
:1015B0003FFB022D05460BD1306880015ED5FFF759
:1015C00037FB401B02284FF00300F5D954E700BF5A
:1015D000306880017FF54FAFFFF72AFB401B0228E0
:1015E0004FF00300F4D947E70020C4F24720002160
:1015F0000160FFF71DFB0546306880077FF507AFE8
:10160000FFF716FB401B02284FF00300F4D933E725
:10161000316F002821F001013167316F21F00401A1
:1016200031674DD0FFF704FB054641F2883700BF14
:10163000306F800756D4FFF7FBFA401BB842F7D94A
:1016400017E000BF3168002821F480313160316833
:1016500021F4802131604FD0FFF7EAFA054600BF40
:10166000306880033FF5B5AEFFF7E2FA401B64280F
:10167000F6D9032002B0BDE8F08100BF04F11C05DB
:101680002FCD08430021CFF6FF7140EA821001EB15
:10169000C3316FF30F0140EA056008437060012019
:1016A0003866FFF7C5FA0446306880013FF5E3AEBF
:1016B000FFF7BEFA001B02284FF00300F4D9DBE667
:1016C000FFF7B6FA054641F2883700BF306F800752
:1016D00008D5FFF7ADFA401BB8424FF00300F5D92B
:1016E000CAE600BFB8F1000F7FF497AE306C20F06F
:1016F0008050306491E600BFFFF79AFA054600BFBC
:10170000306880037FF565AEFFF792FA401B6428CE
:101710004FF00300F4D9AFE670B538B10446406A23
:1017200030B10020206104F1140007E0012070BDF9
:101730006068B0F5827F03D004F11C0000210160D5
:101740000026A66294F8510020B9204684F8506023
:1017500000F03CF8022084F8510094E80F0001F4F6
:101760008271056802F4044225F0400505601144C9
:1017700003F400622369114403F002026369114417
:1017800003F00102A369E569114403F400721144F6
:1017900005F03802256A114405F08002A56A11435C
:1017A00005F4005211430160626A042101EA134109
:1017B00002F0100211444160C16921F40061C1616D
:1017C0000120666584F85100304670BD80B586B052
:1017D000006843F20042C4F2010200219042CDE9C8
:1017E0000411CDE90211019124D043F20001C4F2A9
:1017F0000101884249D1002043F630010090C4F233
:1018000002014A6942F480524A614A6902F48052F4
:101810000092009A0090086840F001000860086893
:1018200000F0010000900098F02001900020C4F228
:1018300002001FE043F630000091C4F2020042694A
:1018400042F400524261426902F400520092009A4E
:101850000091016841F010010160006800F0100083
:10186000009000984FF4F04001900020C4F2020074
:1018700000F580500221029100210391032104917F
:101880000521059101A9FFF7EFF806B080BD000022
:10189000704700007047000010B590F83C20012A06
:1018A0004FF0020251D080F83D200268D2F804E0E7
:1018B000D2F808C00C682EF07003234341F2FF7485
:1018C000C4F20004A24253600EDC40F2FF73C4F283
:1018D00000039A4216DCB2F1804F2BD040F2004355
:1018E000C4F2000324E000BF40F2FF33C4F201035E
:1018F0009A4213DC41F60003C4F200039A4219D065
:10190000002313E040F60003C4F200039A4211D012
:1019100040F60043C4F200030AE000BF44F20003B3
:10192000C4F201039A4205D040F20043C4F201031D
:101930009A4204D149682CF0800319439160012137
:10194000002280F83D1080F83C20104610BD0000B9
:10195000002804BF0120704710B5044690F83D00F0
:1019600028B9002084F83C00204600F01FF802202F
:1019700084F83D002068211D00F0CCFF012084F890
:10198000460084F83E0084F83F0084F8400084F864
:10199000410084F8420084F8430084F8440084F84D
:1019A000450084F83D00002010BD00007047000095
:1019B00090F83D1001291CBF01207047022180F8DA
:1019C0003D10006841F2FF72C168C4F2000290420B
:1019D00041F00101C1600DDC40F2FF71C4F2000171
:1019E000884215DCB0F1804F2AD040F20041C4F2A9
:1019F000000123E040F2FF31C4F20101884213DC10
:101A000041F60001C4F20001884219D0002113E020
:101A100040F60001C4F20001884211D040F60041B6
:101A2000C4F200010AE000BF44F20001C4F2010167
:101A3000884205D040F20041C4F20101884206D13B
:101A4000816801F00701062904BF00207047016882
:101A500041F0010101600020704700007047000064
:101A600070B504460068C5680669B10716D515F05B
:101A7000020113D06FF00201016101212177806919
:101A8000800703D02046FFF7E9FF05E0204600F07D
:101A90008FF8204600F0FCF900202077700719D558
:101AA00015F0040016D020686FF0040101610221D6
:101AB0002177806910F4407F04D02046FFF7CEFFE5
:101AC00006E000BF204600F073F8204600F0E0F981
:101AD00000202077300717D515F0080014D02068B3
:101AE0006FF00801016104212177C069800703D0EC
:101AF0002046FFF7B3FF05E0204600F059F82046E6
:101B000000F0C6F900202077F00619D515F0100076
:101B100016D020686FF01001016108212177C0699B
:101B200010F4407F04D02046FFF798FF06E000BF86
:101B3000204600F03DF8204600F0AAF9002020776A
:101B4000F00718BF15F0010002D1300609D412E0E9
:101B500020686FF001010161204600F09BF930061A
:101B600009D515F0800006D020686FF08001016172
:101B70002046FFF78DFE700609D515F0400006D00F
:101B800020686FF040010161204600F08DF9B00639
:101B900058BF70BD15F0200008D021686FF02002FA
:101BA00020460A61BDE87040FFF774BE70BD0000BA
:101BB000704700002DE9F04190F83C30012B04BF44
:101BC0000220BDE8F0814FEAB202032A00F2FC8055
:101BD000DFE802F0023E7EBE036840F200471C6A66
:101BE0001A6A24F0020422F001021A621A46D3F89B
:101BF00004E052F818CF8E6843F48065C4F2010700
:101C0000BD4244EA060405D1CE6824F00C0426F057
:101C1000040634430E68BD4207D1D1E905572EF4BE
:101C2000407E45EA0E0545EA070E2CF07307374360
:101C3000C3F804E09F614F6809695F631C629F6994
:101C400047F008079F619F6927F004079F61B1E093
:101C5000036840F200481C6A1A6A24F0200422F04B
:101C600010021A621A46D3F804E052F818CF8F68AF
:101C700043F48065C4F20108454544EA071407D1DE
:101C8000CF686FF0400624F0C00406EA071634431C
:101C90000F68454507D1D1E905562EF4406E4EEA4E
:101CA000850545EA860E2CF4E64646EA0727C3F882
:101CB00004E09F614F6809699F631C629F6947F454
:101CC00000679F619F6927F480679F6171E000BF93
:101CD000036840F200481C6A1A6A24F4007422F473
:101CE00080721A621A46D3F804E052F81CCF8F684B
:101CF00043F48065C4F20108454544EA072408D14D
:101D0000CF6840F2FF463F0224F4406427EA06060B
:101D100034430F68454507D1D1E905562EF4405E9E
:101D20004EEA051545EA061E2CF073063743C3F844
:101D300004E0DF614F680969DF631C62DF6947F017
:101D40000807DF61DF6927F00407DF6132E000BFC9
:101D5000036840F20045D3F820C01A6A43F4806754
:101D600022F480521A621A465C6852F81CEFD1F8CD
:101D700000808E68C4F20105AF4204D14D6924F49D
:101D8000804444EA85142CF4005747EA06372EF4C1
:101D9000E64646EA08265C60DE614E6809691E6414
:101DA0001F62DF6947F40067DF61DF6927F480673E
:101DB000DF6109021368194311600021002280F8D5
:101DC0003C200846BDE8F0810121002280F83C203B
:101DD0000846BDE8F0810000002804BF01207047DC
:101DE00010B5044690F83D0028B9002084F83C0066
:101DF000204600F01FF8022084F83D002068211DD5
:101E000000F088FD012084F8460084F83E0084F844
:101E10003F0084F8400084F8410084F8420084F8D0
:101E2000430084F8440084F8450084F83D00002015
:101E300010BD000082B0006841F60001C4F200014C
:101E4000884213D0B0F1804F1FD10020019043F69B
:101E50004000C4F20200016841F001010160006825
:101E600000F001000190019802B07047002000903E
:101E700043F64000C4F20200016841F040010160F5
:101E8000006800F040000090009802B07047000029
:101E900070470000006842F20001C4F2000188426D
:101EA00008BFFFF71BB8704770470000002804BF49
:101EB0000120704710B5044690F8410028B9002071
:101EC00084F84000204600F021F8242084F84100E6
:101ED0002068C16821F40051C160204600F0C0FDB7
:101EE0002068016921F490410161416921F02A01D2
:101EF0004161C16841F40051C1600020202160644B
:101F000084F8411084F84210606310BD80B586B03B
:101F1000006847F2FF71C4F2000188424FF00001EF
:101F20000591CDE90311CDE9011135DC44F2004101
:101F3000C4F20001884267D044F60001C4F20001F7
:101F400088427DD044F60041C4F20001884240F04E
:101F5000E180002043F630010090C4F202010A69DA
:101F600042F400220A610A6902F400220092009AF7
:101F70000090086840F0010008600868082100F03F
:101F80000100009000980320019040F60040C4F248
:101F90000200A0F54060B3E047F60001C4F2000182
:101FA00088426FD047F60041C4F20001884200F039
:101FB000858041F20041C4F20101884240F0AA80CC
:101FC000002043F630010090C4F202014A6942F059
:101FD00020024A614A6902F020020092009A0090B1
:101FE000086840F0040008600868082100F0040058
:101FF00000900098C020019040F60040C4F202001A
:10200000A0F580607CE000BF002043F63001009026
:10201000C4F202010A6942F400320A610A6902F458
:1020200000320092009A0090086840F008000860B2
:10203000086800F008000090009860201BE000BFD6
:10204000002043F630010090C4F202010A6942F414
:1020500080220A610A6902F480220092009A0090AC
:10206000086840F008000860086800F00800009068
:1020700000984FF44070019040F600400721C4F2F0
:1020800002003DE0002043F630010090C4F202015E
:102090000A6942F080420A610A6902F080420092B5
:1020A000009A0090086840F010000860086800F08E
:1020B0001000009000984FF4C07019E0002043F623
:1020C00030010090C4F202010A6942F000420A6144
:1020D0000A6902F000420092009A0090086840F0FD
:1020E00010000860086800F01000009000980320BD
:1020F000019040F60040C4F2020000F58060082123
:1021000002220292002203920322CDE9042101A9B6
:10211000FEF7AAFC06B080BDFEE70000B0B584B0B3
:1021200040F2801042F2000101230024C2F20000BC
:10213000C4F20101C0F60073012503944FF480320C
:10214000047680F82040C0E90A34C56180F8304048
:1021500080E81600C0E903444561FEF7A9FA0028AB
:1021600018BFFEF7F3F90B20CDE9000540F280100F
:10217000C2F2000069460294FEF7ECF9002818BF8D
:10218000FEF7E4F904B0B0BD80B540F2C81046F2E5
:102190000041C2F20000C4F200010023102280E8D6
:1021A0000E00C0E90333C0E905338383FEF762FB09
:1021B000002808BF80BDBDE88040FEF7C7B9000019
:1021C00080B540F2F01046F60001C2F20000C4F201
:1021D00000010023102280E80E00C0E90333C0E9AB
:1021E00005338383FEF746FB002808BF80BDBDE8AA
:1021F0008040FEF7ABB9000080B542F6150044F60A
:102200006822C0F60000C0F60002002100F008FDC0
:1022100040F27C11C2F20001086080BD2DE9F0435C
:1022200087B0002743F6300006970197C4F20200FA
:10223000016840F6004441F0100101600168C4F2F9
:10224000020401F01001019101990197016804F560
:10225000806641F0800101600168002201F0800188
:102260000191019901970168042541F00401016081
:10227000016801F00401019101990197016841F0A1
:1022800001010160016801F00101019101990197CB
:10229000016841F002010160016801F00201019151
:1022A00001990197016841F008010160006804216B
:1022B00000F00800019001983046FEF7B3FC20467C
:1022C000112100224FF01108FEF7ACFC029502AD7F
:1022D0004FF0010930462946CDE903970597FEF7EF
:1022E000C3FB082002904FF48810CDE90307A4F542
:1022F00080602946FEF7B8FB4FF470400290022040
:10230000CDE90307CDE9057020462946FEF7ACFB71
:1023100020462946CDE90289CDE90477FEF7A4FBE2
:1023200007B0BDE8F083000080B540F2182045F604
:102330000041C2F20000C4F2000148F2A062002392
:102340004FF4804CC0F2010280E80E00C0E9033C6B
:10235000C0E90533C0E90733FEF7AEFC002818BF1B
:10236000FEF7F4F840F21820C2F200000021FEF758
:1023700065FC002818BFFEF7E9F840F21820C2F209
:1023800000000021FEF778FC002808BF80BDBDE8F2
:102390008040FEF7DBB8000080B540F26C2043F2CD
:1023A0000001C2F20000C4F201014FF48272002366
:1023B0004FF4802C80E80E000A21C0E90333C0E905
:1023C000053CC361C0E90833C0E90A31FFF7A4F94D
:1023D000002808BF80BDBDE88040FEF7B7B8000008
:1023E00080B540F2C42043F20041C2F20000C4F2C2
:1023F00001014FF4827200234FF4802C80E80E001C
:102400000A21C0E90333C0E9053CC361C0E90833D0
:10241000C0E90A31FFF780F9002808BF80BDBDE898
:102420008040FEF793B80000B0B58EB041F60005CD
:1024300040F21C30C4F200050024C2F200004FF646
:10244000FF71CDE90644CDE90444C0E90054C0E978
:10245000024104618461FFF7BFFC002818BFFEF74A
:1024600075F86020CDE901040394059440F21C3412
:10247000C2F2000401A920460422FFF79BFB0028BA
:1024800018BFFEF763F820680021A842099119D00F
:10249000B0F1804F33D10020089043F63000C4F2F1
:1024A0000200016841F0010101600068012100F0B3
:1024B0000100089008984FF40040099005F5F430A9
:1024C00014E000BF43F630000891C4F20200016836
:1024D00041F0020101600068092100F0020008904B
:1024E00008984FF40040099005F5F63002220A9250
:1024F00000220D9109A9CDE90B22FEF7B5FA0EB025
:10250000B0BD0000B0B590B040F2AC300021C2F2D6
:1025100000004FF080424FF0FF33CDE90811CDE9C4
:102520000611CDE90411C0E90021C0E902130161DF
:102530008161FFF751FC002818BFFEF707F840F251
:10254000AC30C2F2000008A9FFF7A6F9002818BFB6
:10255000FDF7FCFF40F2AC346020C2F200040190B1
:10256000002501A920460022CDE902550595FFF777
:1025700021FB002818BFFDF7E9FF206841F60001A4
:10258000C4F2000188420B951AD0B0F1804F38D1C7
:1025900000200A9043F63000C4F20200016841F0C6
:1025A000010101600068012100F001000A900A9811
:1025B0004FF400400B900020C4F2020018E000BF6E
:1025C00000200A9043F63000C4F20200016841F096
:1025D000020101600068092100F002000A900A98D7
:1025E0004FF400400B900020C4F2020000F5806020
:1025F00002220C9200220F910BA9CDE90D22FEF7C9
:1026000033FA10B0B0BD000080B540F2844044F60B
:102610000041C2F20000C4F2000100234FF00C0C94
:102620004FF4E13280E80E00C0E90333C0E905C38E
:10263000C361FFF73BFC002808BF80BDBDE88040B8
:10264000FDF784BF80B540F2145047F60001C2F296
:102650000000C4F2000100234FF00C0C4FF4E132F3
:1026600080E80E00C0E90333C0E905C3C361FFF78A
:102670001DFC002808BF80BDBDE88040FDF766BF97
:1026800080B540F25C5047F60041C2F20000C4F24F
:10269000000100234FF00C0C4FF4E13280E80E00F3
:1026A000C0E90333C0E905C3C361FFF7FFFB00289E
:1026B00008BF80BDBDE88040FDF748BF80B540F24F
:1026C000F43044F20041C2F20000C4F200010023E1
:1026D0004FF00C0C4FF4E13280E80E00C0E90333F8
:1026E000C0E905C3C361FFF7E1FB002808BF80BD57
:1026F000BDE88040FDF72ABF80B540F23C4044F67B
:102700000001C2F20000C4F2000100234FF00C0CE3
:102710004FF4E13280E80E00C0E90333C0E905C39D
:10272000C361FFF7C3FB002808BF80BDBDE8804040
:10273000FDF70CBF80B540F2CC4041F20041C2F23F
:102740000000C4F2010100234FF00C0C4FF4E13201
:1027500080E80E00C0E90333C0E905C3C361FFF799
:10276000A5FB002808BF80BDBDE88040FDF7EEBE98
:10277000FEE70000FEE7000000000000000000008F
:10278000EFF30980BFF36F8F154B1A681EF0100F1F
:1027900008BF20ED108A20E9F04F10602DE90900F4
:1027A0004FF0500080F31188BFF34F8FBFF36F8F4E
:1027B00001F004FB4FF0000080F31188BDE8090030
:1027C00019680868B0E8F04F1EF0100F08BFB0ECB1
:1027D000108A80F30988BFF36F8F704700BF00BF76
:1027E0007000002000000000000000000000000059
:1027F000074B19680868B0E8F04F80F30988BFF309
:102800006F8F4FF0000080F31188704700BF00BF4A
:1028100070000020012000F0C1F9FBE780B54EF206
:102820001000CEF20000006801F01AFF012808BF76
:1028300080BDBDE8804001F0E1BB000080B592B0F2
:10284000002043F640010B90CDE90900CDE90700D7
:102850000590CDE90300CDE901000090C4F202012A
:102860000A6842F080520A60096801F080510091C4
:10287000009947F200010090C4F200010A6842F496
:1028800040420A600968012201F440410091009928
:102890000221CDE90C1008200E90B420CDE90F01E3
:1028A000042009921022119006A806910A92FEF7C0
:1028B00077FD18B172B600BFFEE700BFFEF704FC5B
:1028C00010B172B6FEE700BF0F2001900220029007
:1028D000002003904FF4A05004904FF480500590D6
:1028E00001A80521FEF72EFC10B172B6FEE700BF6D
:1028F00012B080BD4EF68850CEF20000016841F45F
:10290000700101607047000040F26430C2F20000C4
:10291000FFF7A6B810B540F6FF3E0368C4F2000EFC
:1029200040F2004C7045C4F2010C27DCB0F1804F3E
:1029300031D040F20042C4F2000290422BD040F667
:102940000002C4F20002904225D041F6FF72C4F2A8
:102950000002904229DC70453CDCB0F1804F5FD032
:1029600040F20042C4F20002904259D040F6000208
:10297000C4F20002904253D056E000BF40F600423D
:10298000C4F20002904206D0604504D00022C4F296
:1029900001029042D9D14A6823F07003134341F6F3
:1029A000FF72C4F200029042D5DD43F6FF72C4F21A
:1029B0000102904222DC42F20002C4F20002904284
:1029C0002ED00022C4F20102904229D0604527D0C7
:1029D0002AE000BF40F60042C4F2000290421FD03D
:1029E00041F60002C4F20002904219D041F60042C2
:1029F000C4F20002904213D016E000BF44F200027D
:102A0000C4F2010290420BD044F60002C4F201026B
:102A1000904205D044F20042C4F20102904203D138
:102A2000CA6823F44073134323F080024B69D1F842
:102A300000E08C681A430260C46240F48062C0F80F
:102A400028E0624504BF0969016301214161016910
:102A5000C90708BF10BD016921F00101016110BD66
:102A600010B504460068D4E902C22369016921F463
:102A7000405111430161626943EA0C01E36911436A
:102A8000C268194349F20C639A431143C16041691A
:102A9000A26921F4407141F20043114340F4806285
:102AA000C4F201039A42416102D1FEF72FFC01E01A
:102AB000FEF718FCE16963681922B1F5004FA0FB2D
:102AC00002011FD15A00DB0FFDF7E0FB48F21F5156
:102AD000C5F2EB11A0FB01235A096FF0630302FB5F
:102AE0000300322303EBC000A0FB01014FF4F87098
:102AF00000EA111000EB0210C1F3421108442168F2
:102B0000886010BD9A009B0FFDF7C0FB48F21F5173
:102B1000C5F2EB11A0FB01235A096FF0630302FB1E
:102B20000300322303EB0010A0FB0101F02000EAB8
:102B3000511000EB0210C1F3431108442168886072
:102B400010BD0000FEE70000FEF7D6F9FFF776FEA5
:102B5000FFF764FBFFF7E2FAFFF716FBFFF730FB26
:102B6000FFF7E2FBFFF718FCFFF73AFCFFF7CAFCA0
:102B7000FFF75AFCFFF748FDFFF764FDFFF780FD04
:102B8000FFF79CFDFFF7B8FDFFF7D4FD00F016F846
:102B9000FFF732FB00F026F8FEE70000EFF30581B7
:102BA00000291CBF6FF005007047002804BF0020FB
:102BB000704780B500F0B8FF002080BDEFF30580BE
:102BC00000281CBF6FF00500704740F27810C2F279
:102BD00000000168002911BF4FF0FF3001210160A2
:102BE0000020704710B5EFF3058000281CBF6FF080
:102BF000050010BD40F27810C2F200000168012902
:102C00001CBF4FF0FF3010BD4EF61F51CEF2000139
:102C100000240C700221016001F050F8204610BD24
:102C2000F0B585B08C4600230493EFF3058140B1E5
:102C300039B94AB19469002C08BF1824382C15D929
:102C40000023184605B0F0BD00218023182404AFEE
:102C50009AB263460094019701F096FC01280CBFDC
:102C6000049B0023184605B0F0BD00BF1179C907C9
:102C700020D15669D2E902574FEA960E1168002E0C
:102C8000734608BF80238DB15C2F13D312690023D4
:102C9000002A18BF002ED4D0CDE900427246634608
:102CA000029501F0A1FC05B0F0BD00BF17B9126993
:102CB000002ACCD00023184605B0F0BD2DE9F04124
:102CC000044600F0EFFD40F27006C2F20006F06824
:102CD00040F294650130F0603068C2F2000558B1EE
:102CE0003069002840F007813068E16AC06A884294
:102CF00098BF3460FFE000BF3460F068012840F006
:102D0000FA80284600F074FD05F1140000F070FD13
:102D100005F1280000F06CFD05F13C0000F068FDB5
:102D200005F1500000F064FD05F1640000F060FD65
:102D300005F1780000F05CFD05F18C0000F058FD15
:102D400005F1A00000F054FD05F1B40000F050FDC5
:102D500005F1C80000F04CFD05F1DC0000F048FD75
:102D600005F1F00000F044FD05F5827000F040FD33
:102D700005F58C7000F03CFD05F5967000F038FD0F
:102D800005F5A07000F034FD05F5AA7000F030FDE7
:102D900005F5B47000F02CFD05F5BE7000F028FDBF
:102DA00005F5C87000F024FD05F5D27000F020FD97
:102DB00005F5DC7000F01CFD05F5E67000F018FD6F
:102DC00005F5F07000F014FD05F5FA7000F010FD47
:102DD00005F5027000F00CFD05F5077000F008FD28
:102DE00005F50C7000F004FD05F5117000F000FD14
:102DF00005F5167000F0FCFC05F51B7000F0F8FC02
:102E000005F5207000F0F4FC05F5257000F0F0FCED
:102E100005F52A7000F0ECFC05F52F7000F0E8FCD9
:102E200005F5347000F0E4FC05F5397000F0E0FCC5
:102E300005F53E7000F0DCFC05F5437000F0D8FCB1
:102E400005F5487000F0D4FC05F54D7000F0D0FC9D
:102E500005F5527000F0CCFC05F5577000F0C8FC89
:102E600005F55C7000F0C4FC05F5617000F0C0FC75
:102E700005F5667000F0BCFC05F56B7000F0B8FC61
:102E800005F5707000F0B4FC05F5757000F0B0FC4D
:102E900005F57A7000F0ACFC05F57F7000F0A8FC39
:102EA00005F5826000F0A4FC05F2244000F0A0FCCF
:102EB00005F5876000F09CFC05F24C4000F098FCA2
:102EC00040F24C18C2F20008404600F091FC08F1B4
:102ED0001407384600F08CFC06F1640000F088FC12
:102EE00006F13C0000F084FC06F1500000F080FC8C
:102EF000C6F81C8037627068716A421CE06A7260B2
:102F00008842626488BF706200EB800005EB80003D
:102F1000211D00F0AFFC00F0E9FC306988B1306899
:102F2000E16AC06A884228BFBDE8F0814EF60450CD
:102F3000CEF200004FF080510160BFF34F8FBFF31E
:102F40006F8FBDE8F081000040F2700540F294669A
:102F50004EF60458C2F20005C2F20006CEF2000896
:102F60004FF0805703E000BF204600F0D7FCA86870
:102F7000D0B100F097FCA86CC468201D00F00AFCDA
:102F8000E8680138E860A8680138A86000F0AEFC85
:102F900094F859000228EAD00128E5D070B9206BD6
:102FA00000F0BCFCE0E700BF30680228DFD3C8F8BF
:102FB0000070BFF34F8FBFF36F8FD8E74FF0500013
:102FC00080F31188BFF36F8FBFF34F8FFEE70000D0
:102FD0002DE9F0470A9C8246206B16460F46DDE934
:102FE00008599100A5229846FDF70DFA206B002F95
:102FF00000EB8600A0F1040020F0070656D03878D8
:1030000084F83400387800284BD0787884F835007C
:103010007878002845D0B87884F83600B878002849
:103020003FD0F87884F83700F878D0B3387984F84E
:1030300038003879A8B3787984F83900787980B382
:10304000B87984F83A00B87958B3F87984F83B0035
:10305000F87930B3387A84F83C00387A08B3787A53
:1030600084F83D00787AE0B1B87A84F83E00B87A06
:10307000B8B1F87A84F83F00F87A90B1387B84F8D8
:103080004000387B68B1787B84F84100787B40B1A0
:10309000B87B84F84200B87B00281CBFF87B84F81A
:1030A0004300002084F8430003E000BF002084F8C0
:1030B00034000027201D372D28BF3725E562C4E9DD
:1030C000135700F0A1FB04F1180000F09DFBC5F1BF
:1030D0003800A0613046514642462461646267650B
:1030E00084F8587000F042FBB9F1000F206018BF5F
:1030F000C9F80040BDE8F08708480068006880F320
:1031000008884FF0000080F3148862B661B6BFF300
:103110004F8FBFF36F8F00DF00BF000008ED00E0AE
:1031200081B00020009040F20C00C2F20000006864
:103130004FF0500181F31188BFF36F8FBFF34F8FB2
:10314000013007D0FEE700BF009830B9009820B9E1
:10315000009810B900980028F6D001B07047000020
:1031600088B040F2E80AC2F2000A0DF11009EB46FD
:10317000DAF8080005681DB1C068046801E000BF06
:10318000002400F013FE01F07BFADAF81010064676
:10319000884220D3002DCAF8106051D0A6424FD3E8
:1031A00001F076FBDAF80800C068C7683D1D2846C4
:1031B00000F0F0FA97F82800410745D400F0FE002F
:1031C00087F8280084E000BF6860DAF80800394614
:1031D0002D6100F01DFBDAF80800016831B3C0680A
:1031E000C56804682F1D384600F0D4FA296A2846BD
:1031F000884795F828004007EDD5A8692044A042EB
:10320000E2D8DAF80000002800F04881002004A984
:1032100031C101F025FADAF8000049460022002306
:1032200000F074FF0028D6D138E100BFDAF80C10A6
:10323000CAF81060CAE9021001F02AFB1AE100BFC7
:1032400065B1002210E000BFB8693F610119B142C9
:1032500079601FD90AF1080021E000BFDAF80C00FC
:103260000068B0FA80F04209DAF80000A11B00F013
:1032700031FC01F00DFB002840F0FC804EF60450BC
:10328000CEF200004FF080510160BFF34F8FBFF3CB
:103290006F8FEFE0311B814206D20AF10C0000680B
:1032A000294600F0B5FA13E0DAF80000002800F033
:1032B0001381002004A991C101F0D2F9DAF80000CD
:1032C00049460022002300F021FF002800F004817D
:1032D000396A38468847CDE00098B0F1FF3F07DCF7
:1032E000DDE90120039990470098002800F1C28091
:1032F000029E706910B1301D00F04CFA01F0C0F967
:10330000DAF81010074688420DD30098CAF81070FA
:1033100009283FD9AEE000BF6860DAF8080021460E
:103320002D6100F075FADAF80800016841B3C06851
:10333000C568D0F800802C1D204600F02BFA296AC1
:103340002846884795F828004007ECD5A8694044EE
:103350004045E1D8DAF80000002800F09580002010
:10336000CDE90408069501F07BF9DAF8000049463A
:103370000022002300F0CAFE0028D4D184E000BF60
:10338000DAF80C10CAE902100098CAF8107009287F
:1033900000F27080DFE800F0060606444862060688
:1033A000444800BF96F82800019A40F00101B06936
:1033B00086F828108318314641F8043FBB42366135
:1033C00006D997420AF1080007D293420AD204E0D4
:1033D000BA1A824206D20AF10C00006800F018FA0C
:1033E00048E000BF316A3046884796F82800400719
:1033F00040D5DAF8000000285AD00198B169069645
:1034000008440021CDE9041001F02AF9DAF800009F
:1034100049460022002300F079FE58BB48E000BF77
:1034200096F8280022E000BF96F8280040F001013D
:10343000019886F828100028B06143D038443146FE
:103440000AF10C0241F8040F3661B84288BF0AF154
:103450000802106800F0DCF90CE000BF96F82800C4
:10346000810703D4304600F059FA03E000F0FE0073
:1034700086F82800DAF800005946002200F05CFFC8
:1034800000287FF429AF73E64FF0500080F31188D5
:10349000BFF36F8FBFF34F8FFEE700BF4FF05000B9
:1034A00080F31188BFF36F8FBFF34F8FFEE700BF2C
:1034B0004FF0500080F31188BFF36F8FBFF34F8F31
:1034C000FEE700BF4FF0500080F31188BFF36F8F0D
:1034D000BFF34F8FFEE700BF4FF0500080F311881D
:1034E000BFF36F8FBFF34F8FFEE70000F0B581B0E1
:1034F000044600F0D7F994F94560012E0FDB04F182
:10350000240500BF286850B1284601F087F900283B
:1035100018BF00F053FBF0B2013E0128F2D8FF269D
:1035200084F8456000F0E2F900F0BCF994F94470C9
:10353000012F0EDB04F11005286850B1284601F078
:103540006DF9002818BF00F039FBF8B2013F0128DF
:10355000F2D884F8446001B0BDE8F04000F0C6B98C
:1035600070B5044600F022FC40F2241CC2F2000CAC
:10357000DCF8040050B19CF80000002818BF4FF0A0
:1035800000404FF000057CBB8DE000BF40F6F4200A
:10359000C2F20000C21D22F0070210F00701A0EBEA
:1035A000020318BF104600224FF47055CCE9060202
:1035B000002918BF03F570554119083921F007019A
:1035C000CCF80410C1E90022DCF80420091AC0E993
:1035D000002101208CF800004FF00040CCE90211DE
:1035E000002C4FF000055ED020405CD104F11000AB
:1035F00020F00702600708BF04F10802002A4FF01C
:10360000000550D0DCF8080082424CD8604650F8E3
:1036100018EFDEF8045095422BD2DEF80010B9B155
:1036200074464D68954217D20B68ABB15D68954200
:1036300016D21868A0B14568954215D204689CB1AD
:103640006568954214D22168A6460029E9D110E0A8
:103650000CF118000DE000BF8E46204609E000BFC7
:103660009E46084605E000BF8646184601E000BFBA
:10367000A646DCF804108E4514D00168DEF8004040
:10368000AB1A112B04604DD30EEB0205680719D05D
:103690004FF0500080F31188BFF36F8FBFF34F8F4F
:1036A000FEE700BF002501F0F3F868075BD04FF09C
:1036B000500080F31188BFF36F8FBFF34F8F00BFAF
:1036C000FEE700BF0CF118006B60CEF8042000BFCD
:1036D0000368AB420AD21868A8420BD20368AB4217
:1036E00004D218681A46A842F2D304E002461846EB
:1036F00001E000BF1A4653686C68D618AE4202D18A
:103700001C44154654602B19834207D1DCF8043061
:10371000984203D0D0E9000323446B60AA4228609A
:1037200018BF156001F10805DEF80400DCE902129B
:10373000091A9142CCF8081038BFCCF80C109CF84C
:103740000010002918BF40F00040CEF80400DCF85B
:10375000100000210130CEF80010CCF8100001F06C
:1037600097F86807A3D1284670BD0000034643F2CE
:103770002110C0F600004FF0807C21F0010103E928
:1037800003106FF0020043F8240CA3F1440043F847
:10379000202C7047D0E9013201699A60D1F804C049
:1037A00082688445536008BF4A600022026108684D
:1037B000013808600868704744F6F803C2F2000355
:1037C000036044F2F860C2F20000086080201060DC
:1037D0007047000044F65453C2F20003036044F6FD
:1037E0005410C2F2000008604FF4807010607047FF
:1037F0004FF0FF31024642F8081F00214260C0E945
:103800000322016070470000002101617047000041
:1038100010B5D1F800E01EF1010213D000F1080448
:1038200062681368734511D853681C68744511D8D1
:103830005A68146874450FD854682368A4467345C1
:10384000EED90BE00269D2F804C007E094462246A4
:1038500004E000BF9C4601E094461A46C1F804C04B
:10386000CCF808108A60516008610168013101607C
:1038700010BD0000D0F800C0436808619A684B6032
:103880008A609A68996051600CF10101016070478B
:10389000DFF80C00016841F470010160704700001E
:1038A00088ED00E04FF0500080F31188BFF36F8F78
:1038B000BFF34F8F40F20C00C2F2000001684A1CB7
:1038C000026009B1704700BF4EF60450CEF200000E
:1038D0000068000608BF70474FF0500080F3118861
:1038E000BFF36F8FBFF34F8FFEE7000040F20C0075
:1038F000C2F20000016839B10139016018BF704798
:10390000002080F3118870474FF0500080F3118839
:10391000BFF36F8FBFF34F8FFEE7000070B5002835
:1039200008BF70BD40F22415C2F200050446287895
:1039300054F8041C002818BF4FF0004008420DD076
:10394000A4F1080632689AB14FF0500080F3118854
:10395000BFF36F8FBFF34F8FFEE700BF4FF05000F4
:1039600080F31188BFF36F8FBFF34F8FFEE700BF67
:1039700021EA000044F8040C00F018FA54F8041C82
:10398000A8680844A86005F1180000BF0368B342A6
:103990000AD21868B04225D20368B34204D218682C
:1039A0001A46B042F2D301E0024618465368D418D2
:1039B000B44202D11944164651607318834206D1AD
:1039C0006B68984203D0D0E9000319447160B24299
:1039D000306018BF1660686901306861BDE87040EA
:1039E00000F056BF1A465368D418B442E5D1E1E757
:1039F0004EF21000CEF2000000210160816040F222
:103A00000801C2F20001096844F6D352C1F2620211
:103A1000A1FB02124FF0FF3101EB9211416007212F
:103A20000160704744F6B05CC2F2000CDCF8002084
:103A300022B3634653F8082F42B3634653F8102F5E
:103A400052B3634653F8182F62B3634653F8202FDE
:103A500072B3634653F8282F82B3634653F8302F6E
:103A600092B3634653F8382F002A18BF70470722D5
:103A700019600CEBC2014860704700BF002263462A
:103A800019600CEBC2014860704700BF0122196049
:103A90000CEBC20148607047022219600CEBC201B6
:103AA00048607047032219600CEBC2014860704700
:103AB000042219600CEBC2014860704705221960AE
:103AC0000CEBC20148607047062219600CEBC20182
:103AD0004860704770B515460E460446FFF7E2FE93
:103AE00094F84400FF2804BF002084F8440094F8B0
:103AF0004500FF2804BF002084F84500FFF7F6FECC
:103B0000A06B28B12046BDE87040FFF7EFBC00BFB6
:103B100004F1240031462A4600F092F82046BDE820
:103B20007040FFF7E3BC000070B588B340F2700549
:103B3000C2F200050446686950B14FF0500080F3AE
:103B40001188BFF36F8FBFF34F8F00BFFEE700BF39
:103B5000686901306861AE6928680430FFF71AFEB1
:103B60002868A419446005D3286A29680431FFF73E
:103B70004FFE08E0E86929680431FFF749FEE86A6A
:103B8000844238BFEC6200F083FE002818BF70BD8D
:103B90004EF60450CEF200004FF080510160BFF3AA
:103BA0004F8FBFF36F8F70BD40F27001C2F2000102
:103BB0008A6B0260896941607047000040F27000C2
:103BC000C2F20000012101637047000070B5D8B156
:103BD00040F27004C2F200040D4621681831FFF76C
:103BE00017FEA66920680430FFF7D4FD681C15D0C5
:103BF0002068AD19456019D3206A21680431BDE8F9
:103C00007040FFF705BE00BF4FF0500080F31188F1
:103C1000BFF36F8FBFF34F8FFEE700BF54F8500B19
:103C2000011D2046BDE87040FFF724BEE069216811
:103C30000431FFF7EDFDE06A854238BFE56270BDF3
:103C4000F0B581B0C0B140F27004C2F200040D467C
:103C5000216816461831FFF70DFEA7692068043069
:103C6000FFF798FD96B154F8500B011D204601B0A6
:103C7000BDE8F040FFF7FEBD4FF0500080F3118823
:103C8000BFF36F8FBFF34F8FFEE700BF2068ED19C2
:103C9000456007D3206A2168043101B0BDE8F040D7
:103CA000FFF7B6BDE06921680431FFF7B1FDE06AB6
:103CB000854238BFE56201B0F0BD000010B588B0A4
:103CC0000020CDE9050006A805A904AAFFF774FDA8
:103CD000059800283ED0069C002C45D05C21049A13
:103CE000079107995C2949D107992063022084F83C
:103CF000590007A80021CDE9001042F64970C0F62E
:103D0000000028A100230294FFF762F92046FEF785
:103D1000D5FF079840F27004C2F20004A062B0B16F
:103D200000F02EFE411C33D0012810D14FF050007E
:103D300080F31188BFF36F8FBFF34F8F4FF0FF30C9
:103D4000E062012020610020A06100F095F808B039
:103D500010BD00BF4FF0500080F31188BFF36F8F8C
:103D6000BFF34F8FFEE700BF4FF0500080F3118884
:103D7000BFF36F8FBFF34F8FFEE700BF4FF05000D0
:103D800080F31188BFF36F8FBFF34F8FFEE700BF43
:103D90004FF0500080F31188BFF36F8FBFF34F8F48
:103DA000FEE700BF49444C450000000040F27000AF
:103DB000C2F20000416901314161704780B540F2B3
:103DC000700EC2F2000EDEF8141019B10121CEF807
:103DD000301080BD0021CEF83010DEF8241040F203
:103DE000946C01EB8103C2F2000C5CF823208AB1D1
:103DF00001EB81020CEB820353F8042F5268181D6B
:103E000082421A6020D0D068CEF80000CEF824108C
:103E100080BD00BF0CEB8302A2F12803E1B15A6917
:103E200022BB012918D01A6812BB022914D053F8FA
:103E3000142CFAB903290FD053F8282C0439002A7E
:103E4000A3F15003EAD0D3E752681A60D068CEF8E5
:103E50000000CEF8241080BD4FF0500080F3118890
:103E6000BFF36F8FBFF34F8FFEE700BF0139BFE78E
:103E70000239BDE70339BBE7B0B584B04EF2004C60
:103E8000CEF2000C4CF27021C4F20F11DCF80029C4
:103E90004B1C9A420AD14FF0500080F31188BFF3B7
:103EA0006F8FBFF34F8F00BFFEE700BFDCF8002924
:103EB0008A4209D14FF0500080F31188BFF36F8F11
:103EC000BFF34F8FFEE700BF9CF800100291FF2167
:103ED0008CF800109CF800108DF807109DF8071062
:103EE00001F0500240F24411C2F200010A700722B0
:103EF0004A609DF90720B2F1FF3F69DC032200BF51
:103F0000D31C4B609DF8070040008DF807009DF919
:103F10000700B0F1FF3F23DC931C4B609DF80700C6
:103F200040008DF807009DF90700B0F1FF3F17DC56
:103F3000531C4B609DF8070040008DF807009DF969
:103F40000700B0F1FF3F0BDC4A609DF80700043A20
:103F500040008DF807009DF907000028D0D4131DFC
:103F6000032B35D14FF44070486002988CF8000064
:103F7000DCF8200940F47000CCF82009DCF82009B6
:103F800040F07040CCF82009FFF732FD40F20C04FD
:103F9000C2F2000400252560FFF77AFC4EF634706B
:103FA000CEF20000016841F040410160FFF7A4F843
:103FB000FFF704FF039520684FF0500181F311884B
:103FC000BFF36F8FBFF34F8F013011D0FEE700BFFB
:103FD0004FF0500080F31188BFF36F8FBFF34F8F06
:103FE000FEE700BF039830B9039820B9039810B9D1
:103FF00003980028F6D0002004B0B0BD80B54FF083
:10400000500080F31188BFF36F8FBFF34F8F00F024
:104010003DFB30B14EF60450CEF200004FF080511F
:104020000160002080F3118880BD000070B582B06F
:1040300070B11C46B3B1F9B9F2B14FF0500080F342
:104040001188BFF36F8FBFF34F8F00BFFEE700BF34
:104050004FF0500080F31188BFF36F8FBFF34F8F85
:10406000FEE700BF4FF0500080F31188BFF36F8F61
:10407000BFF34F8FFEE700BF51B14AB94FF0500078
:1040800080F31188BFF36F8FBFF34F8FFEE700BF40
:1040900050230193019B502B2ED1019B069E01239F
:1040A000002984F8463014BF22602460C4E90F015F
:1040B000FFF7F8FB2068D4E90F12002502FB01038B
:1040C000013901FB0201A563C4E90103FF20E1609E
:1040D00084F8440084F8450004F11000FFF788FBE1
:1040E00004F12400FFF784FBFFF700FC204684F86E
:1040F0004C6002B070BD00BF4FF0500080F31188DB
:10410000BFF36F8FBFF34F8FFEE700002DE9F04F35
:1041100083B00292C0B11D4617460E460446E9B16F
:10412000022D03D1E06B012840F0888000F098FA5E
:1041300010BB0FB34FF0500080F31188BFF36F8FA7
:10414000BFF34F8FFEE700BF4FF0500080F31188A0
:10415000BFF36F8FBFF34F8FFEE700BF206C0028C7
:10416000DED04FF0500080F31188BFF36F8FBFF3A4
:104170004F8F00BFFEE700BFFFF794FBA06B022D3F
:1041800066D0E16B884263D304F1100801206F46CA
:104190000DF108090DE000BF2046FFF7A7F900F078
:1041A00077FBFFF77FFBA06BE16B88424FF00000CD
:1041B0004ED30299002973D0C00702D03846FFF7CA
:1041C000F3FCFFF793FBFFF7F1FDFFF76BFB94F8B0
:1041D0004400FF2804BF002084F8440094F8450000
:1041E000FF2804BF002084F84500FFF77FFB384616
:1041F000494600F077F9002858D1FFF753FBD4F86F
:1042000038A0D4F83CB0FFF771FBDA45C4D102996D
:104210004046FFF7DBFC2046FFF768F900F038FB6B
:104220000028BED14EF60450CEF200004FF080516F
:104230000160BFF34F8FBFF36F8FB2E74FF05000B5
:1042400080F31188BFF36F8FBFF34F8FFEE700BF7E
:10425000A76B226CD2B19DB3E0683146FCF78EF8B3
:10426000E168206C2268091A9142E16003D2A168DA
:1042700040420844E060A81EB0FA80F04009394688
:10428000002F18BF012108403F1A26E020680025B2
:1042900020BBA06800F07CFAA56005461EE000BFC8
:1042A000FFF724FB002003B0BDE8F08F2046FFF7A6
:1042B0001DF900F0EDFA002003B0BDE8F08F00BF5B
:1042C00060683146FCF75AF8216CD4E901020844D1
:1042D0009042606001D3206860600025781CA06374
:1042E00054F8240FA0B1204600F098FA50B14EF6D1
:1042F0000450CEF200004FF080510160BFF34F8FA9
:10430000BFF36F8FFFF7F2FA012003B0BDE8F08F23
:10431000002DF7D04EF60450CEF200004FF0805141
:104320000160BFF34F8FBFF36F8FFFF7DFFA0120FC
:1043300003B0BDE8F08F00002DE9F04F83B002928A
:1043400090B116460D460446002949D000F088F980
:10435000A0B99EB14FF0500080F31188BFF36F8F6A
:10436000BFF34F8FFEE700BF4FF0500080F311887E
:10437000BFF36F8FBFF34F8FFEE700BFFFF792FAD7
:10438000D4F838A0BAF1000F38D0226C52B1D4E979
:1043900002308118E160994224BF2168E16028461B
:1043A000FBF7ECFFAAF10100A06354F8100F80B1F5
:1043B000204600F033FA002800F086804EF60450C4
:1043C000CEF200004FF080510160BFF34F8FBFF37A
:1043D0006F8F0126FFF78AFA304603B0BDE8F08FF1
:1043E000206C0028B2D04FF0500080F31188BFF34A
:1043F0006F8FBFF34F8F00BFFEE700BF002E4FF05F
:10440000000662D0EB46584604F12408FFF7CCFBC7
:104410000DF10809FFF76AFAFFF7C8FCFFF742FA47
:1044200094F84400FF2808BF84F8446094F84500DD
:10443000FF2808BF84F84560FFF758FA58464946F8
:1044400000F050F860B12046FFF750F800F020FA75
:10445000FFF728FAA76BFFF749FA1FBB3CE000BF44
:10446000FFF720FAA76BFFF741FA2FB12046FFF7BD
:104470003DF800F00DFA15E002994046FFF7A6FB63
:104480002046FFF733F800F003FA58B94EF604500F
:10449000CEF200004FF080510160BFF34F8FBFF3A9
:1044A0006F8F00BFFFF7FEF9D4F838A0BAF1000F04
:1044B0007FF46BAF02980028ACD10026FFF716FA04
:1044C000304603B0BDE8F08F0126FFF70FFA304603
:1044D00003B0BDE8F08F00BF0026304603B0BDE852
:1044E000F08F0000B0B5D8B10D4619B30446FFF700
:1044F000D9F940F2700CC2F2000CDCF818202968DF
:104500004B1C21D0D4E9000EDCF83830834221D096
:1045100072451FD30124FFF7E9F92046B0BD00BF63
:104520004FF0500080F31188BFF36F8FBFF34F8FB0
:10453000FEE700BF4FF0500080F31188BFF36F8F8C
:10454000BFF34F8FFEE700BF0024FFF7CFF92046EF
:10455000B0BD00BFA2EB0E0291420DD9881A2860AF
:10456000DCF838002060DCF8180060600024FFF7F9
:10457000BDF92046B0BD00BF002001242860FFF730
:10458000B5F92046B0BD00002DE9F04383B00746E1
:104590009000984615468946FEF7E2FFF8B10646B8
:1045A0005C20FEF7DDFFB8B10446DDE90A10002209
:1045B000266384F85920CDE90010384649462A463A
:1045C00043460294FEF704FD2046FEF777FB0120E8
:1045D00003B0BDE8F08300BF3046FFF79FF94FF00E
:1045E000FF3003B0BDE8F08370B586B00B9CCCB152
:1045F0000C9E0EB35C250495049D5C2D26D1049D74
:10460000DDF828C0022586F8595005AD3463CDE9A0
:1046100000C50296FEF7DCFC3046FEF74FFB05981E
:1046200006B070BD4FF0500080F31188BFF36F8F5C
:10463000BFF34F8FFEE700BF4FF0500080F31188AB
:10464000BFF36F8FBFF34F8FFEE700BF4FF05000F7
:1046500080F31188BFF36F8FBFF34F8FFEE7000029
:1046600040F27000C2F20000016900290FBF012072
:104670004069B0FA80F0400918BF40007047000060
:1046800040F27000C2F20000806970472DE9F043EB
:1046900081B040F27006C2F20006706940B1706BE2
:1046A000002401307063204601B0BDE8F08300BFF4
:1046B000B06910F10109C6F8189020D3F0690068BC
:1046C00050B14FF0500080F31188BFF36F8FBFF3EC
:1046D0004F8F00BFFEE700BFF069316AF1613062C1
:1046E000B06B0130B063F069006828B1F069C06850
:1046F000C068406802E000BF4FF0FF30F062F06A2F
:1047000040F294688145C2F2000801D200242EE0F4
:10471000F0690024006813E0F86A716A884288BF73
:10472000706200EB800008EB80002946FFF7A2F8DA
:10473000F86A3168C96AF269884228BF01241068A2
:1047400090B1F069C068C7683D4655F8040F8145CF
:104750000CD32846FFF71EF8B86A0028DCD007F112
:104760001800FFF717F8D7E74FF0FF30F062306816
:10477000C06A00EB800058F82000012888BF01249F
:10478000306B002818BF0124204601B0BDE8F0833B
:1047900070B588B140F27006C2F200060446306877
:1047A000A0420BD04FF0500080F31188BFF36F8F01
:1047B000BFF34F8FFEE700BF002070BD206D18B320
:1047C000411EE06AE26C216590424FF0000008BF94
:1047D00070BDC1B9251D2846FEF7DCFFE06CC0F1B5
:1047E0003801E062A161716A884240F2946188BF39
:1047F000706200EB8000C2F2000101EB80002946EC
:10480000FFF738F8012070BD4FF0500080F3118899
:10481000BFF36F8FBFF34F8FFEE7000070B5C06826
:10482000C5686DB105F118042046FEF7B3FF40F2EC
:104830007006C2F20006706960B106F164001AE009
:104840004FF0500080F31188BFF36F8FBFF34F8F8D
:10485000FEE700BF2C1D2046FEF79CFFE86A716A48
:10486000884240F2946188BF706200EB8000C2F21F
:10487000000101EB80002146FEF7FCFFE86A316889
:10488000C96A884292BF00200120306370BD0000D9
:104890002DE9F04140F27005C2F20005686968B187
:1048A000FFF700F8686901386861686980B1002421
:1048B000FFF71CF82046BDE8F08100BF4FF0500024
:1048C00080F31188BFF36F8FBFF34F8FFEE700BFF8
:1048D000E8680028EBD0686E88B340F29466C2F2B4
:1048E00000064FF0010800BF286FC76807F11800E5
:1048F000FEF750FF3C1D2046FEF74CFFF86A696A40
:10490000884288BF686200EB800006EB8000214689
:10491000FEF7B0FFF86A2968C96A884228BFC5F85F
:104920003080686E0028DFD1E869006820B1E8694E
:10493000C068C068406801E04FF0FF30E8626C6B0F
:104940004CB10126FFF7A2FE002818BF2E63013CE0
:10495000F8D100206863286B0028A8D04EF60450D8
:10496000CEF200004FF080510160BFF34F8F012461
:10497000BFF36F8FFEF7BAFF2046BDE8F08100005D
:1049800070B586B0FEF78EFF40F2E806C2F2000670
:10499000306808BB06F114042046FEF729FF06F133
:1049A00028052846FEF724FF40F2A45240F2446353
:1049B000C6E902450025C2F20002C2F200030A2045
:1049C00010210095FFF732FB306028B144F69821A2
:1049D000C0F60001FFF726F8FEF788FF3068D8B16F
:1049E0000020CDE9040005A804A903AAFEF7F2FE01
:1049F000DDE903200221059DCDE9001043F261109D
:104A0000C0F6000009A100230295FFF7EDFD7060DC
:104A100010B1012006B070BD4FF0500080F3118836
:104A2000BFF36F8FBFF34F8FFEE700BF546D72204F
:104A300053766300F1EE100A4FF6FF71C0F2C031F9
:104A400020EA010040F04070E1EE100A70470000DB
:104A5000000000000000010203040607080900002E
:104A600000000102030400008C4A0008000000005E
:104A70000000000000000000000000000002000034
:104A8000180000000000000000000000646566617E
:104A9000756C745461736B00546D725100000000AA
:104AA000C04A00080000002010000000E8010008D3
:104AB000D04A000810000020E05300000402000863
:104AC00001000000100000000024F400AAAAAAAA15
:04000005080001AD41
:00000001FF
